:020000040800F2
:1000000000100020110500081B0400081B04000854
:100010001B0400081B0400081B040008000000006B
:100020000000000000000000000000001B040008A9
:100030001B040008000000001B0400081B0400084B
:1000400080B500F010F801215FF0006000F0CFF8FB
:10005000DFF8DC01016851F481010160016811F4ED
:100060008101016001BD80B5012000F059F800F068
:100070005DF8002000F0B4F8DFF8B8010168002155
:100080000160DFF8B401016800210160DFF8AC0114
:10009000016800210160DFF8A8010168002101600A
:1000A000DFF8A001016800210160DFF89C01016810
:1000B00000210160DFF89401DFF89411086001BDB0
:1000C000DFF878110A68920892000A60012802D0CD
:1000D000022805D009E0086850F00100086004E03B
:1000E000086850F003000860FFE7704780B5002003
:1000F0000090222000F089F80099491C0091009995
:10010000B1F5C06F02D2C0B20028F2D0222000F0B8
:100110007CF8002801D0012000E00020C0B202BD20
:100120000021C0B2DFF82C110860704780B50020B4
:100130000090172000F069F80099491C009100997F
:10014000B1F5C06F02D2C0B20028F2D0172000F083
:100150005CF8002801D0012000E00020C0B202BD00
:10016000DFF8D0301A689208920010431860DFF868
:10017000C820106830F4706050EA01201060DFF889
:10018000D8000068002805D0DFF8D0000121016008
:100190000021016070470021C0B2DFF8C410086080
:1001A0007047C0B2DFF8B0100860704780B500201B
:1001B0000090212000F029F80099491C0091009935
:1001C000B1F5C06F02D2C0B20028F2D0212000F0F9
:1001D0001CF8002801D0012000E00020C0B202BDC0
:1001E000144A116831F44071084310607047C9B275
:1001F000002904D016490A681043086004E0144935
:100200000A6832EA00000860704710F0E001202917
:1002100002D11449096801E00549096810F01F007E
:10022000C140C80701D5012000E00020C0B27047DE
:100230003C800D400C0002400400024008000240D7
:100240001000024014000240180002401000000894
:100250001C000240D807B043880040428C00404256
:1002600088014042000002402DE9F34F0100D1F81F
:1002700004C0D1F808E0D1F80C80D1F81090D1F882
:1002800014A08A69CB690024012503265FF00117B9
:100290000198008875E05FEAC07B6DD53CEA050CEB
:1002A000DDF804B09BF802B01BFA04FB5BEA0C0C0F
:1002B0003EEA060ECDF800E0DDF804E09EF808B056
:1002C000A6465FFA8EFE5FEA4E0E1BFA0EFEDDF8C2
:1002D00000B05EEA0B0E38EA0508DDF804B09BF8C2
:1002E0000AB01BFA04FB5BEA080839EA0709CDF8F3
:1002F0000090DDF8049099F803B014F110091BFA8E
:1003000009F9DDF800B059EA0B09DDF804B09BF8F3
:1003100004B01BFA04FB5BEA09093AEA070ACDF8C4
:1003200000A0DDF804A09AF805B014F1100A1BFA39
:100330000AFADDF800B05AEA0B0ADDF804B09BF8BF
:1003400006B01BFA04FB5BEA0A0AB2430092019A68
:1003500092F809B02200D2B252001BFA02F2DDF884
:1003600000B052EA0B02AB43DDF804B09BF807B0D3
:100370001BFA04FB5BEA03036D00B6007F00641CFC
:100380004008002887D1C1F804C0C1F808E0C1F8CE
:100390000C80C1F81090C1F814A08A61CB61BDE84F
:1003A000F38F0068084201D0012000E00020C0B2B5
:1003B00070470368D2B2002A02D01943016002E0FC
:1003C00033EA01010160704780B5FFF739FE012073
:1003D000FFF776FEFFF78AFE002800D1FEE7042132
:1003E0000220FFF7BDFE0120FFF7DBFEFFF7DEFE78
:1003F000002800D1FEE70120FFF7CDFE4FF480700A
:10040000FFF7EEFE01215FF40000FFF7F0FE01218F
:100410005FF08070FFF7EBFE01BDFEE7E0B5012065
:100420008DF8020000208DF8080001208DF80A00E8
:1004300003208DF809000420ADF800006946084843
:10044000FFF712FF07BD80B5C0B2002801D001221E
:1004500000E00022D2B204210148FFF7AAFF01BD4B
:1004600000800B40E0B500208DF8020000208DF8E0
:10047000080001208DF80A0001208DF809002020D5
:10048000ADF8000069460548FFF7EEFE07BD80B5F0
:1004900020210248FFF785FF02BD000000000C404C
:1004A00080B50020FFF790FFFFF7B8FFFFF7DAFFF6
:1004B000FFF7EDFFC0B2002801D0002000E00120CE
:1004C000C0B2FFF7C0FFF3E700F00DF8002801D03D
:1004D000AFF30080AFF300800020AFF30080FFF7A0
:1004E000DFFF00F002F80120704700F001B80000C3
:1004F0000746384600F002F8FBE7000080B5AFF38E
:100500000080024A11001820ABBEFBE72600020063
:0C051000AFF30080AFF30080FFF7D6FFD0
:0400000508000511D9
:00000001FF
